:100000000C942A000C9446000C9446000C94460074
:100010000C9446000C9446000C9446000C94460048
:100020000C9446000C9446000C9446000C94460038
:100030000C9446000C9446000C9446000C94460028
:100040000C9446000C9446000C9446000C94460018
:100050000C94460011241FBECFE5D4E0DEBFCDBF17
:0C0060000E9436000C943400F894FFCF8E
:10006C0081E087BB61E040E157E220E533EC68BBFF
:10007C00CA010197F1F718BAC9010197F1F7F7CF47
:04008C000C940000D0
:00000001FF
